:400000000040002011000000ED100000ED10000010B501F08DF8C04610B51222214B1A60302001F0D7F9204A204B1A60B82252011F4B1A601F4B204A1A6000241F4A146075
:400040001F4A1A601F4A14601F4A1A601F4A14601F4A1A60882189011E4A11601E4A1A60802212061D4B1A608022D2021C4B1A6043221C4B1A60023A1B4B1A6001321B4B41
:400080001A60023A1A4B1A6004321A4B1A601A49072001F0FBF8072001F0ECF8174B1C6010BDC046300010400600008004010B400C0301400000014043FF0080040301408A
:4000C00041FF00800803014042FF00800003014040FF00801003014044FF008008010B4000010B404C01014034010140300101402C01014010010140151500000C020B40C0
:4001000010B572B60122354B1A7000240FE034486200131959000B00411889881A5AC31858880004104300F0DBFF0134E4B2012CEDD92B490C312B486C3000F0A7FF8022B4
:400140005200294B1A80FF3A284B1A70284A294B1A60294A294B1A609922294B1A60294A294B1A60A2221204284B1A6099231B04274A1360274A13607F23274A1360274ABD
:40018000136027490B783C22934314221343DBB20B70244A117816230B43DBB21370224A224B1A60F322224B1A60A33A214B1A60214A224B1A601022214B1A60214A224B2F
:4001C0001A600223214A13602149224A1160224A1360FFF721FF00F073FF10BD1C700F40807C0000007E000000600F4002600F40000008080002024000EE080000030240D3
:40020000000502400400990000500F4004500F4020500F4030500F402000104000800F4001700F4000700F4041021800080004400C000440000204400060DB000802044086
:4002400000030440806D0300080304400005044031000300080504401805044010B5064C2378002B07D1054B002B02D0044800E000BF0123237010BDA00100200000000097
:40028000C4790000084B10B5002B03D00749084800E000BF07480368002B00D110BD064B002BFBD09847F9E700000000A4010020C4790000C00000200000000010B501F08B
:4002C00021FCFA239B009C46604401F015FC024A13680133136010BDBC01002070B5084B1C68237D002B0AD10133237501F0EEFB044D6B68C01A206301F0E8FB686070BDF7
:40030000E4020020BC01002010B5FFF7E7FF01F0CDFA10BD10B5FFF7E1FF01F0D9FA10BD10B5FFF7DBFF01F0E5FA10BD10B5FFF7D5FF01F0BBFA10BD10B5FFF7CFFF01F0DA
:40034000C7FA10BD10B5FFF7C9FF01F0D3FA10BD10B5002000F036FF10BDC04610B5002000F03CFF10BDC04610B5002000F042FF10BDC04610B5012000F024FF10BDC0466C
:4003800010B5012000F02AFF10BDC04610B5012000F030FF10BDC046F0B583B004000191171C1D001900314801F08CFD060001F00BF9300001F084F9300001F0FBF9256096
:4003C000280002F0E7FD011CFE20800502F014F9274902F0DBFA20612649019802F0D6FA6060A7600023E36008222C23E2540C320233E254002303E0E218591C91750B00B3
:40040000052BF9DD00232377032565770620A0770222E27705261E32A6541F3A212162541D392227E1550137E3550137E3550137E6552136A55524356255013560552330AE
:400440002154263162542A32A35401F021F901F099F901F013FA2000FFF77AFF2000FFF77DFF2000FFF780FF03B0F0BD006CDC0200007A440000404210B50400081C0D4938
:4004800002F084FA40004008616802F0B5F8041C002101F0DDFE002800D0002401F09CF802F078FD211C02F071FA01F0F9FE01F09BF810BD0000404210B50400081C0D492F
:4004C00002F064FA40004008616802F095F8041C002101F0BDFE002800D0002401F0F8F802F058FD211C02F051FA01F0D9FE01F0F7F810BD0000404210B50400081C0D49F7
:4005000002F044FA40004008616802F075F8041C002101F09DFE002800D0002401F052F902F038FD211C02F031FA01F0B9FE01F051F910BD0000404210B50400FFF71AFF2B
:4005400001F0A6F8E1682000FFF796FF10BDC04610B50400FFF714FF01F014F9E1682000FFF7AAFF10BDC04610B50400FFF70EFF01F084F9E1682000FFF7BEFF10BDC04651
:4005800010B5040000230375FFF7D6FF2000FFF7DFFF2000FFF7E8FF0A4801F049FC0A4801F014FC094801F0E1FB094801F04AFB084801F077FB084801F0A6FB06222D238E
:4005C000E25410BD0903000015030000210300002D030000390300004503000010B50400FFF7B6FE2000FFF7B9FE2000FFF7BCFE10BDC046F8B504000E00151C2E23C75CB5
:40060000380002F07FFC291C01F022FE002803D0380002F0BFFC051C5549281C01F02CFE002800D0524D0021281C01F011FE002800D000252000FFF78BFE2000FFF78EFE67
:400640002000FFF791FEA37DB34212D12000FFF77FFE00212000FFF74FFF291C2000FFF72BFF2000FFF792FE2000FFF789FE281C7DE0E37D9E4212D12000FFF775FE00218F
:400680002000FFF719FF291C2000FFF7F5FE2000FFF776FE2000FFF76DFE281C67E0237E9E4212D12000FFF759FE00212000FFF723FF291C2000FFF7DFFE2000FFF766FE4C
:4006C0002000FFF757FE281C51E0637E9E4212D12000FFF743FE00212000FFF7CDFE291C2000FFF709FF2000FFF744FE2000FFF74DFE281C3BE0A37E9E4212D12000FFF7A8
:4007000033FE00212000FFF7B7FE291C2000FFF7D3FE2000FFF72EFE2000FFF731FE281C25E0E37E9E4212D12000FFF711FE00212000FFF7C1FE291C2000FFF7DDFE20000B
:40074000FFF71EFE2000FFF721FE281C0FE0002E01D0072E0AD12000FFF7FAFD2000FFF7FDFD2000FFF700FE002000E00148F8BD0000C842000080BF007D704700230375A9
:400780007047C04610B501F089F8440001F098F82043C4B2640001F0A5F80443E0B210BD002A01D01C3000E02430405C7047C04610B5006B02F0EEFB10BDC04610B50B4B42
:4007C00003610B4A426100238361C261FE2292050262084C4462C262074A0263002242638162036043608360C36010BDCDCCCC3D0000C8420000A041000080BFF0B54F46FB
:4008000080B484B004000F1C01920669856A291C006A02F0BBF80097391C02F0CBF9011C301C02F0B3F8071C60600099281C02F0C1F9051C0199301C02F0A8F8616901F074
:40084000DBFE011C281C02F0A1F8A16801F05EFD051CA060A3690293626A0392111C019802F094F8011C029801F050FD011C029801F0C2FE0290E36899460399301C02F004
:4008800085F8061C2168009802F094F9011C301C02F07CF8011C484602F08CF9011C029802F074F8061CE060291C381C01F02EFD011C301C01F02AFD061C0290E76A391C01
:4008C00001F0DAFC002800D1371C266B311C381C01F0BEFC002800D13E1C0299301C02F069F9071CE169019801F086FE011C381C02F04CF8011C281C01F008FDA060009B66
:400900002360301C04B004BC9146F0BD002343608360C3607047C04670B51600002405E04D1C087801F020F801342900B442F7DB300070BD70B504000D0001F089F8C0B294
:40094000002822D00A2809D00D2807D0114A9368D118087301339360002306E00D4B9A689A180021117399600123002B0FD0094E30000D3003F0AAFE03F0FEFD2860337B01
:4009800023700023B360012002E0002000E0002070BDC046BC010020F0B585B062B60025039500F0C3FF002001F068F801F0E6F8C94801F015F9C94E08230093C84B2A1C5C
:4009C000C8493000FFF7E8FCC74C291C2000FFF7F5FEC64B1E60C64B2361C64B6361C64BA361C64F3B68A362181C03F071FD02000B000020C24902F00BFB0022C14B02F0CB
:400A00002BFF0022C04B02F027FF01F061FC800803F026FD0022BD4B02F0FAFA01F058FCBB4B1860BB4BE36225637D600122BA4B1A700024B94B1C7059322E23F2544121EE
:400A40003000FFF79DFDB64B9C75B64803F012FFB54803F07FFE3B7A002B01D1B34800E0B34803F077FEB34803F074FE9E4CB249206901F08BFF02F023FA0100AF4D2800C8
:400A800003F068FEAE4803F065FEAB49606901F07DFF02F015FA0100280003F05BFEA94803F058FEE06A02F00BFA0100A64D280003F050FEA54803F04DFE206B02F000FA77
:400AC0000100280003F046FEA14803F043FEA06A02F0F6F90100280003F03CFE9D4803F039FE2E237D4AD15C280003F033FE9A4803F0C0FE00F0EAFF984B186003A90B20FA
:400B00006844FFF717FF002800D159E10B236B441B78413BDAB2312A00D951E19300904AD3589F46754B039A5A6049E101240021039801F08DFB002800D10024E4B20123FD
:400B40005C406E4B1C723BE1674B039A1A6137E1654B039A5A6133E1634B039A9A612FE1614B039ADA622BE1644E039B33605E4CA56A291C181C02F01DF8F16801F03CFDF2
:400B8000011C281C01F0C2FBA06219E15B4B039A1A615A4B039A5A61039801F081FB2E234E4AD0540CE1554B039A9A6108E1039B5B005B08514AD36002E1039801F070FB48
:400BC0004E4B1877FCE04848FFF7A0FEF8E04348FFF704FDF4E00124FC218905039801F037FB002800D10024E4B201235C404C4B9C75E5E0039801F053FB494BD875DFE0B7
:400C0000484803F037FE484803F0A4FD3B4B1B7A002B01D1454800E0454803F09BFD514803F098FD304D4449286901F0AFFE02F047F90100444C200003F08CFD4A4803F0FD
:400C400089FD3D49686901F0A1FE02F039F90100200003F07FFD454803F07CFD3649E86A01F094FE02F02CF90100200003F072FD3F4803F06FFD286B2F4901F087FE02F013
:400C80001FF90100200003F065FD3A4803F062FD29491A4B186801F079FE02F011F90100200003F057FD344803F054FD22491C4B986901F06BFE02F003F90100200003F0C0
:400CC00049FD244803F046FD2E23044AD15C200003F040FD74E0C046BD02000064020020102700000000C842A8020020E4020020A69B443B0000A040CDCC4C3EC400002099
:400D00000000F03F00004E4080842E4100005940F00200200000B442F502002060020020BC010020F47A00001C7B0000E87A0000F07A0000287B000000007A44307B00008F
:400D4000487B0000547B0000447B0000607B00006C7B0000747B0000807B0000E0020020C87900009C7B0000B87B0000D47B0000F47B0000147C0000347C0000AF4803F001
:400D8000E9FCAF4B186802F09BF80100AD4C200003F0E0FC2C2003F0F7FCAB4B986902F08FF80100200003F0D5FC2C2003F0ECFCA64B1978A64803F0CDFC2C2003F0E4FC6D
:400DC000A14B9B7D002B00D12FE1A24C2000FFF7D9FC9D4B18772000FFF7CEFC002803D19D4B1B78002B23D0002821D000229A4B1A70984D2800FFF7DBFC01F051FA924C80
:400E0000236A9C466044206200F060FE934B18602800FFF7B7FC2077012803D18A4A536A013353620022884B9A628A48FFF7A6FC854B5B6A042B6AD1834C00236362012167
:400E4000824A1170A362E362206A03F009FB02000B000020824902F0DBF80022814B02F0FBFC0022804B02F0F7FC03F085FB3025635D9A00A2185063581C0A2101F092F94A
:400E800061550023A361002408E06F4DA300EB18596BA86901F03AFAA8610134092CF4DD694C7249A06901F0A7FB011CA061704B9C6A201C01F07EFE4000400803F008FB97
:400EC00006000F00201C03F003FB02000B003000390002F09DF80022664B02F0BDFC00228023DB0501F07AF900280DD0544D211C286801F05FFEE96801F07EFB011C201C57
:400F000001F004FA5A4B986200224F4B1A6200F0DDFD594B1B68C01AFA239B00984222D900F0D4FD544B1860474B9969534A5048FFF764FC424B5860444B1B78002B04D135
:400F40004448FFF71FFC404B18773D4C227A3E4B197F404D2800FFF723FC010062682800FFF748FB606000F0B1FD374BDB6DC01A434B984224D900F0A9FD334DE865304E36
:400F8000317A404C200003F0E5FB706801F098FF0100200003F0DEFB354B986A01F090FF0100200003F0D6FB6023E95C200003F0D1FBA86901F084FF0100254803F0CAFB81
:400FC00000F084FD254B1B68C01A03F049FA04000D00274B986A03F07BFA02000B000020214902F015F80022274B02F035FC00221C4B02F031FC02000B002000290001F054
:4010000001F9002800D179E50022104B1A7000F05DFD124B18600C4B9A6A01329A6201210D4A117000229A6168E50A48FFF7D6FA0023034A5360044A93615FE5587C0000B6
:40104000C4000020647C0000BC01002060020020447B000064020020F5020020E00200200000F03F80842E4100004E4000002041A802002000005940E80200206F12833AB3
:4010800040420F007C7C00000000D03FF0B50025002711E0BB00C658F3B2FF22964308E06A008A181478A419527822700135013BDBB2002BF4D10137072FEBD9F0BDC046D1
:4010C0000323044A1360044A13600022034B1A607047C0463000304030003140000E3F4010B50A00002103F02CFB10BD10B503F0F3FA03680C2B00D1FEE7FEE710B5030052
:40110000094A1068C318094A9A1A802189008A4202DC054A136005E003F0DEFA0C2303600120404210BDC046E40000200803002070B50F4E0F4D13E029686B68AC6800221A
:4011400002E001C901C30432A242FAD1E868002202E0002102C304328242FAD11035013E002EE9D103F0BEFAFFF716FCFEE7C046010000002082000010B50E4A13680121B4
:401180008B43136000230AE0032B03D89A000A49505800E009489900094A885001332F2BF2D9FEF7ADFF034A116801230B43136010BDC0460000104000000000ED10000089
:4011C0000000002004490A68D2B220239A43400118401043086070470003044004490A68D2B220239A43400118401043086070470002044004490A687F231A40C301D8B25D
:40120000104308607047C0460002044000230AE00D4A12683F210A400C49C95C8A4201D1033303E001332D2BF2D9032308490868084A02400A60084A944663441B78DBB208
:40124000064A13607047C0462CFF0B408C7E000000002240FFFFFFBFCDF1FF0F28FF0B40034B18688023DB05184000D001207047000022401F2318401E3B8340014A1360EB
:401280007047C04600E100E001BE704770B504000D001F2802D90020FFF7F6FF1034A40080239B059C4664442068256070BDC04610B5040006E0084B586800F0C9FD074B18
:4012C0009C46644480231B029C42F4D8024B9868604300F0BDFD10BDE80000200080FFFF70B582B000F0C0F800285DD000F0B9FD050000230AE02D4A12683F210A402C49F1
:40130000C95C8A4201D1033303E001332D2BF2D903230021274A1160274A1268D20606D1254802681F318A4313390A430260234C2168234A1140234A5A438023DB019C46A7
:401340006244D20B013A5205520D0B001343A0225203134323601C4B1B680193302000F087FD1A4A13688021C9050B4313602668174B1E40002407E00120FFF799FF10340B
:40138000A30533430D4A1360EE2CF5D90120FFF78FFFFF239B051E43084B1E60019A0A4B1A60280000F061FD02B070BD2CFF0B408C7E000028FF0B4034FF0B40080022402B
:4013C00000F800C040420F003000104000002240FFFF3FC030B587B0040000F042FD0500FFF73EFF002803D0FFF710FF012100E00021104B1B6800930F4B1B680193033CFA
:401400000E4B1B5D02930E4B1B68039304AA0D4B04936B4605930C4B1A600C480C4A10601B68012901D1FFF75BFF280000F01DFD07B030BD08010B4000010B408C7E0000B4
:4014400030001040B6EA0000080010401700008004001040034B1868C0231B02184000D00120704700010B40034B1B68002B01DA012000E0002070470000224010B500F029
:40148000F0FC044A1368C02109020B43136000F0ECFC10BD00010B4010B500F0E2FC08490A68084B1A408024E40122430A600A6813408022120213430B6000F0D6FC10BDB3
:4014C00000010B40FF3FFFFF70B5050000F0C9FC0400FFF7BFFF002803D0FFF7DDFF012100E0002108482840084A1568084B2B40184310601368012901D1FFF7BFFF200082
:4015000000F0B3FC70BDC0460404040010020B40FBFBFBFF10B5244B1B685B0715D5234B5B685B070ED5224B596A042001401F4C62688A4362605A6A82435A629B69002B3A
:4015400000D098470420FFF7BFFF174B1B685B0518D5164B5B685B0510D5154B596A8022D2001140114842688A434260596A114A0A405A62DB69002B00D098478020C0004D
:40158000FFF7A2FF084B1B685B030CD5074B5B685B0304D5064B1B6A002B00D098478020C002FFF791FF10BD10020B40FC00002024020020FFFBFFFF0004000C014B186043
:4015C0007047C046880120400004000C014B18607047C04694012040024B18680004000C7047C046940120400004000C014B18607047C0468C01204070B504000D0000F08C
:4016000030FCAC40024B1C6000F02FFC70BDC0460800204010B500F024FC064A116804230B43136000F021FC18210420FFF7E4FF10BDC04600002040014B18607047C04696
:40164000B801204010B50E4C8023DB042360236823600020FFF7B0FF236823600C22094B1A600120FFF7E8FF3122074B1A6096204001FFF7A9FF0548FFF7B6FF10BDC046D3
:4016800080012040A4012040A80120409012000010B5064B1B78002B04D1FFF7D3FF0122024B1A70FFF7B6FF10BDC0464C0200200004000C014B18607047C0460801204048
:4016C0000004000C014B18607047C04614012040024B18680004000C7047C046140120400004000C014B18607047C0460C01204070B504000D0000F0B4FBAC40024B1C604D
:4017000000F0B3FB70BDC0460800204010B500F0A8FB064A116801230B43136000F0A5FB18210120FFF7E4FF10BDC04600002040014B18607047C0463801204010B50E4C3B
:401740008023DB042360236823600020FFF7B0FF236823600C22094B1A600120FFF7E8FF3122074B1A6096204001FFF7A9FF3020FFF7B6FF10BDC046000120402401204021
:401780002801204010B5064B1B78002B04D1FFF7D5FF0122024B1A70FFF7B8FF10BDC0464D0200200004000C014B18607047C046480120400004000C014B18607047C04679
:4017C00054012040024B18680004000C7047C046540120400004000C014B18607047C0464C01204070B504000D0000F03AFBAC40024B1C6000F039FB70BDC04608002040D8
:4018000010B500F02EFB064A116802230B43136000F02BFB18210220FFF7E4FF10BDC04600002040014B18607047C0467801204010B50E4C8023DB042360236823600020F2
:40184000FFF7B0FF236823600C22094B1A600120FFF7E8FF3122074B1A6096204001FFF7A9FF0548FFF7B6FF10BDC0464001204064012040680120409012000010B5064B55
:401880001B78002B04D1FFF7D3FF0122024B1A70FFF7B6FF10BDC0464E020020024B1868C00801231840704704000440034A1068082318401060C008C0B2704710000440D8
:4018C000024B1868800801231840704704000440034A10680423184010608008C0B2704710000440024B1B68012018407047C04604000440024A10680123184010607047AA
:401900001000044010B500F091F810BD10B500F039F810BD10B5044A1368802109060B431360FFF7EFFF10BD0000264010B5064B1B78002B04D1FFF7E9FF0122024B1A70FE
:40194000FFF7E8FF10BDC04650020020014B18687047C04640032640024B1B681F2018407047C04608032640044B1B681F221340082BF9D0024B18607047C046080226402A
:4019800040022640154A164B1A600023154A13601549164A1160164A16490A6007201649086016490B6006381549086015490A60154A13600421154A1160154A1360154A7C
:4019C0001360154A1360154A1360154A1360154A13601268144B1A807047C0460B000002000026404000264001000A00480026400700008000032640040326401003264054
:401A000044002640000226400402264050002640880E2640C80E2640480F2640080F2640C80F2640880F26405202002005490B68F0229343603A13430B60034B1A88034B10
:401A40001A6070470005024052020020880F264010B5FFF781FF002802D0FFF777FF00E00020054B1A68D8239B001A4203D01A00014B1A60002010BDC00F264004490A6884
:401A8000D2B240239A438001184010430860704700000440034A117880235B420B43DBB21370704770000F40014B18707047C04683000F40014B1878C0B2704763000F40CF
:401AC000014B18607047C04600200F40024B1B78024B18687047C04600000F4000210F40014B18687047C04600210F40014B18607047C04680200F40014B18607047C046E3
:401B0000C0200F40014B18687047C046C0200F4010B501E0FFF7E4FFFFF7CCFF4306F9D410BDC04610B5134B1A7807218A431A701A7804398A431A70FFF7EAFF02204042B8
:401B4000FFF7D4FF0020FFF7BBFF0120FFF7ACFFFFF7B0FFFA208000FFF7CEFF00F081F9054A117810230B43DBB2137000F07DF910BDC04670000F4093000F4010B5064B45
:401B80001B78002B04D1FFF7CDFF0122024B1A70FFF780FF10BDC04654020020014B18647047C0460000002010B5040000F059F9044A1368C0218B43A4011C43146000F088
:401BC00054F910BD00E400E00122014B1A60704700E100E00122014B1A60704780E100E010B50400FFF7F6FF2000FFF7D7FF0020FFF7DAFFFFF7E8FF10BDC046014B58647E
:401C00007047C0460000002010B5040000F029F9044A1168044B0B40A4031C43146000F024F910BD00E400E0FF3FFFFF0222014B1A60704700E100E00222014B1A60704734
:401C400080E100E010B50400FFF7F6FF2000FFF7D5FF0120FFF7D8FFFFF7E8FF10BDC046014BD8647047C0460000002010B5040000F0F7F8044A13689B009B08A4071C43C9
:401C8000146000F0F2F810BD00E400E00822014B1A60704700E100E00822014B1A60704780E100E010B50400FFF7F6FF2000FFF7D7FF0120FFF7DAFFFFF7E8FF10BDC046B5
:401CC000014B58657047C0460000002010B5040000F0C7F8044A1168044B0B40A4031C43146000F0C2F810BD04E400E0FF3FFFFF2022014B1A60704700E100E02022014B22
:401D00001A60704780E100E010B50400FFF7F6FF2000FFF7D5FF0120FFF7D8FFFFF7E8FF10BDC046014B98657047C0460000002010B5040000F095F8044A1168044B0B4028
:401D4000A4051C43146000F090F810BD04E400E0FFFF3FFF4022014B1A60704700E100E04022014B1A60704780E100E010B50400FFF7F6FF2000FFF7D5FF0320FFF7D8FF50
:401D8000FFF7E8FF10BDC046014B18657047C0460000002010B5040000F063F8044A1368C0218B43A4011C43146000F05EF810BD04E400E01022014B1A60704700E100E07E
:401DC0001022014B1A60704780E100E010B50400FFF7F6FF2000FFF7D7FF0320FFF7DAFFFFF7E8FF10BDC046014B98647047C0460000002010B5040000F033F8044A1168E1
:401E0000044B0B40A4051C43146000F02EF810BD00E400E0FFFF3FFF0422014B1A60704700E100E00422014B1A60704780E100E010B50400FFF7F6FF2000FFF7D5FF0320A0
:401E4000FFF7D8FFFFF7E8FF10BDC046000000000230800803D00138FDD1C046C046C0467047EFF3108072B6704780F31088704770B50400FFF7F5FF0500102C05D8104AEA
:401E8000136803218B43136016E0202C07D80C490B6803229343023A13430B600CE0302C07D807490B6803229343013A13430B6002E00020FFF7E8F92800FFF7D6FF70BD87
:401EC00030001040002243088B4274D303098B425FD3030A8B4244D3030B8B4228D3030C8B420DD3FF22090212BA030C8B4202D31212090265D0030B8B4219D300E0090A8C
:401F0000C30B8B4201D3CB03C01A5241830B8B4201D38B03C01A5241430B8B4201D34B03C01A5241030B8B4201D30B03C01A5241C30A8B4201D3CB02C01A5241830A8B42F7
:401F400001D38B02C01A5241430A8B4201D34B02C01A5241030A8B4201D30B02C01A5241CDD2C3098B4201D3CB01C01A524183098B4201D38B01C01A524143098B4201D36B
:401F80004B01C01A524103098B4201D30B01C01A5241C3088B4201D3CB00C01A524183088B4201D38B00C01A524143088B4201D34B00C01A5241411A00D201465241104679
:401FC0007047FFE701B5002000F0F0F802BDC0460029F7D076E7704703460B437FD4002243088B4274D303098B425FD3030A8B4244D3030B8B4228D3030C8B420DD3FF22B3
:40200000090212BA030C8B4202D31212090265D0030B8B4219D300E0090AC30B8B4201D3CB03C01A5241830B8B4201D38B03C01A5241430B8B4201D34B03C01A5241030B6E
:402040008B4201D30B03C01A5241C30A8B4201D3CB02C01A5241830A8B4201D38B02C01A5241430A8B4201D34B02C01A5241030A8B4201D30B02C01A5241CDD2C3098B426C
:4020800001D3CB01C01A524183098B4201D38B01C01A524143098B4201D34B01C01A524103098B4201D30B01C01A5241C3088B4201D3CB00C01A524183088B4201D38B00C6
:4020C000C01A524143088B4201D34B00C01A5241411A00D201465241104670475DE0CA0F00D04942031000D34042534000229C4603098B422DD3030A8B4212D3FC2289010B
:4021000012BA030A8B420CD3890192118B4208D3890192118B4204D389013AD0921100E08909C3098B4201D3CB01C01A524183098B4201D38B01C01A524143098B4201D312
:402140004B01C01A524103098B4201D30B01C01A5241C3088B4201D3CB00C01A524183088B4201D38B00C01A5241D9D243088B4201D34B00C01A5241411A00D2014663464C
:4021800052415B10104601D34042002B00D54942704763465B1000D3404201B5002000F005F802BD0029F8D016E770477047C0468446101C62468C46191C634600E0C046B2
:4021C0001FB501F0DFFA002801D40021C8421FBD10B501F033FA4042013010BD10B501F0D1FA002801DB002010BD012010BDC04610B501F0C7FA002801DD002010BD0120E9
:4022000010BDC04610B501F059FA002801DC002010BD012010BDC04610B501F04FFA002801DA002010BD012010BDC0468446081C6146FFE71FB500F065FB002801D400213C
:40224000C8421FBD10B500F0F1FA4042013010BD10B500F057FB002801DB002010BD012010BDC04610B500F04DFB002801DD002010BD012010BDC04610B500F0FFFA0028B2
:4022800001DC002010BD012010BDC04610B500F0F5FA002801DA002010BD012010BDC0469E2110B5C905041CFFF7F0FF002803D1201C00F005FE10BD9E21201CC90500F0D0
:4022C00079FC00F0FDFD80231B069C466044F2E770B500220C4B04000D00FFF79DFF002804D12000290002F085F870BD064B00222000290001F02AFD02F07CF880231B063B
:402300009C466044F1E7C0460000E041F8B54A02430244004E00C50F240E28009B09360EC90F92098D4259D0A01B002800DC8DE0002E1AD1002A00D079E05A0704D00F22C9
:402340001A40042A00D004335A0138D50134FF2C00D189E028009B015B0AE4B25B02E4055B0A2343C0071843F8BDFF2CE5D08021C9040A431B2800DD89E016002021C640A4
:40238000081A8240511E8A4132439B1A5A0114D59B019E09300002F07BF905388640844265DC041B330020200134E340041BA640721E964100243343BFE75A07BFD1DF0840
:4023C0002800FF2C2FD1002F00D187E08022D20313003B435B025B0AFF24BFE7A11B002949DD002E29D0FF2CA7D08026F60432431B2900DD8DE017002026CF40711A8A4058
:40240000511E8A413A439B185A01D6D50134FF2C64D0012276491A405B080B4013438CE7031ECAD100207B025B0AE4B296E701380028AAD0FF2C9DD17FE7002A00D17CE7DC
:4024400001390029DFD0FF2CD2D176E7002820D1601CC0B2012853DD80279E1AFF0437402FD0D61A0D0095E72800002376E7614B241A334061E700294DD1611CCEB2012EAE
:402480002FDDFF292AD09B185B080C0055E701227BE7002C1BD1002B5BD0C04300280CD0FF2E7ED01B2800DD92E01D002024C540201A8340581E83412B43D31A34000D0050
:4024C00064E7002E00D065E700200024ABE7FF2E67D08024E40440422343E3E7FF2400233CE7002C61D1002B7ED0002A00D124E79B185A0100D460E73E4A0C0013401CE776
:40250000002C1ED1002B2FD1002A66D013000D0013E7012277E7002C1FD1002B5AD0C94300290BD0FF2E50D01B295FDC1F002024CF40611A8B40591E8B413B439B183400AD
:4025400062E7002B1CD1002A4AD013000D00FF24F3E6130034000D00EFE6FF2E35D08024E40449422343DFE7002A00D1E5E68027981AFF04074000D152E7D31A0D00DCE6CD
:40258000FF24002A00D1D8E68020DB08C003034204D0D208024201D113000D00DB00FF24CBE61300FF240D00C7E6002B0DD0FF24002A00D1C1E68021DB08C9030B42EDD00A
:4025C000D2080A42EAD11300E8E71300FF24B4E6012372E713003400AFE60027002022E780270020FF03F1E61300A6E60123A5E7FFFFFF7DFFFFFFFBF0B5564644465F46CE
:402600004D46F0B444024600C70F83B08846650A360EBA463DD0FF2E22D00023EC00802599469B46ED0425437F3E43465C025800DB0F640A000E984636D0FF2830D0802344
:402640000021E400DB041C437F38301A0190484642460843724E800030587A4013008746002D44D108239946063B9B46DDE70122FF2000241A406402C305640AD2071C43FC
:402680001443200003B03CBC90469946A246AB46F0BD002D20D104239946033B9B46C4E7002C17D1022102E0002C0AD10121321A01924A4643460A435A48920082587B407F
:4026C0009746200001F0E4FF431F76309C4040420021BAE70321B8E7280001F0D9FF431F9D4000237630464299469B469DE70C239946093B9B4698E780240022E403FF20DB
:40270000B9E70024C2468B465A465346022AAED0032A7DD0012A31D1012200201A400024A9E70122101A1B2856DD1A4000200024A1E78023DB031D424BD18023DB032B434D
:402740005C02640A3A00FF2095E76D016001854230D2019A0024013A01921B220127290064006D00002901DBA84201D82D1A3C43013A002AF3D16A1E95412C4301987F3068
:402780000028CEDD620704D00F222240042A00D00434220103D5244A019814408030FE2800DD64E70122A401640AC0B21A4062E72C00A9E72D1A1A220124CFE76B02BCD589
:4027C00000248023DB031C436402640A4246FF2051E71C42B3D1F4E721002022C140101A8440621E94410C43620704D00F222240042A00D00434620104D5012201201A408F
:40280000002438E70122A401640A1A40002032E78023DB031C436402640A5246FF202AE7BC7E0000FC7E0000FFFFFFF7430270B542004C005D0AC30F4802120E460A240E4B
:40284000C90FFF2A0FD0FF2C11D00120A24200D070BDB542FCD18B420DD0002AF8D12800431E9841F4E70120002DF1D1EBE70120002EEDD1E9E70020EAE7C0464302F0B52C
:4028800042005D0AC30F4802440A4800120E000EC90FFF2A1FD0FF2822D0002A09D16E426E4100280FD1002C0DD10020002D09D005E0002801D1002C01D08B4213D05842C5
:4028C00001231843F0BD002EF7D048424141012049420843F6E7002DDDD002204042F1E7002CDAD0F9E78242E9DC04DBA542E6D80020A542E6D25842434101205B421843C8
:40290000E0E7C0464302F0B542004C005E0AC30F4802120E450A240EC90FFF2A17D0FF2C19D0002A0BD170427041002C17D0002807D048424141012049420843F0BD002CDA
:4029400013D08B4214D0584201231843F6E70220002EF3D1E3E70220002DEFD1E1E7002DE5D10020002EE9D0EDE7002DE9D1EAE7A242E8DC04DBAE42E5D80020AE42DDD2AF
:402980005842434101205B421843D7E7F0B557464E4645464300E0B446028846760A1F0EC40F002F47D0FF2F25D0002380259A469946F600ED042E437F3F434642465D02DE
:4029C000D20F5B006D0A1B0E904640D0FF2B39D080220020ED00D20415437F3BFB1842465746591C62408C4607430F2F5CD86F49BF00C9598F46002E45D108239A46063B70
:402A00009946DAE7424602282DD0032800D1C3E0012800D0A2E0002500260240D4B27602ED05760A2E43E407264330001CBC90469946A246F0BD002E1AD104239A46033BBB
:402A40009946BAE72A00511E8A41901CC6E70120002DC3D0280001F01BFE431F76309D4043420020BAE70124FF2514400026D6E7300001F00DFE431F9E400023763047429D
:402A80009A46994699E70C239A46093B994694E780260024F603FF25C1E735004846B2E7350022004846AEE72904090C0800370C3604360C2C0C7943704367437443060CA2
:402AC00064183619B14203D980214902884647440004000C310409188D01681E8541890E2943350CED19AD010D43290104D5012369081D4063460D4319007F31002925DD8D
:402B0000680704D00F202840042800D00435280103D5274980330D401900FE29A3DC0124AD016E0A1440CDB279E78020C003064207D0054205D128434602760A4446FF2558
:402B40006DE706437602760AFF2568E70124611A1B2905DD14400025002660E76346CBE72E002023CE40591A8D406B1E9D412E43730704D00F233340042B00D0043673010F
:402B800004D5012401251440002648E70124B601760A1440002542E780260124F6032E437602760A1440FF2539E7C0463C7F0000FFFFFFF7F8B54A024E0043024400240ECE
:402BC000C50F9B09360EC90F9209FF2E00D183E001204140A01BA9425CD0002800DC95E0002E1CD1002A00D081E05A0704D00F221A40042A00D004335A013BD50134FF2C22
:402C000000D191E001209B015B0AE4B205405B02E4055B0AED0723432B431800F8BDFF2CE3D08021C9040A431B2800DD90E016002021C640081A8240511E8A4132439B1A47
:402C40005A0115D59B019E09300001F021FD0538864084426CDC041B330020200134E340041BA640721E964100243343BDE70D005A07BCD1DF0801231D40FF2C33D1002F27
:402C800000D190E08022D20313003B435B025B0AFF24BCE700284FDD002E2ED0FF2CA4D08025ED042A431B2800DD97E016002025C640281A8240501E824132439B185A0171
:402CC000D5D50134FF2C6DD001227B481A405B08034013430D0088E7002A00D07AE777E7031EC5D100257B025B0AE4B28FE701380028A4D0FF2C97D177E7002A00D174E736
:402D000001380028DAD0FF2CCDD16EE7002821D1601CC0B2012858DD80279E1AFF0437402FD0D61A0D008FE701231D4000236EE7624B241A334058E7002851D1601CC6B2E5
:402D4000012E33DDFF282DD09B185B0804004CE7012274E7002C1AD0FF2E1FD08024E404404223431B2800DD96E01D002024C540201A8340581E83412B43D31A34000D00B0
:402D80005EE7002E00D05FE700250024ABE7002B44D0C0430028F0D0FF2EE3D11300FF240D0022E70D00FF24002330E7002C5DD1002B7DD0002A00D117E79B185A0100D441
:402DC00056E73E4A040013400FE7002C1ED1002B2FD1002A65D013000D0006E701226DE7002C1FD1002B59D0C04300280BD0FF2E4FD01B285EDC1D002024C540201A8340F6
:402E0000581E83412B439B18340058E7002B1CD1002A49D013000D00FF24E6E6130034000D00E2E6FF2E34D08024E40440422343DFE7002A00D1D8E68027981AFF04074077
:402E400000D14DE7D31A0D00CFE6FF24002A00D1CBE68020DB08C003034204D0D208024201D113000D00DB00FF24BEE6002B10D0FF24002A00D1B8E68020DB08C00303426C
:402E800003D0D208024200D11300DB000D00FF24ABE61300FF24A8E601236EE713003400A3E6002700251EE780270025FF03E9E613009AE60123A6E7FFFFFF7DFFFFFFFBF0
:402EC0004302590A4300C20F1B0E00207E2B0EDD9D2B0DDC802000040143952B0BDC9620C31AD9400B005842002A00D118007047034BD018FBE7963B99400B00F3E7C04631
:402F0000FFFFFF7F70B5002830D0C317C5185D40C40F280001F0BCFB9E231B1A962B0DDC9622D21A95406A02520AD8B25202C005520AE40702432243100070BD992B19DC66
:402F40009922D21A9540124A2A40690704D00F210D40042D00D00432510103D50C4B1A409F231B1A9201520AD8B2DFE7002400200022DBE705222E00121AB921D6402A0043
:402F8000C91A8A40551EAA4135001543DBE7C046FFFFFFFB70B5041E28D001F079FB9E231B1A962B0ADC9622D21A94406202520AD8B25202520AC005104370BD992B18DC09
:402FC0009922D21A9440114A2240610704D00F210C40042C00D00432510103D50B4B1A409F231B1A9201520AD8B2E2E700200022DFE705222500121AB921D5402200C91A24
:403000008A40541EA2412C001443DCE7FFFFFFFBF0B556464D4644465F46F0B41D000E034C00CB0F87B0070092468146360B640D98466AD06D4B9C4235D08022430F1204EC
:403040001343F6001E43C3009946694B00279C460023644402932B0368001B0BED0F51469B46400D009500D178E0604B98426CD05B46DA004B0F802109040B4313439B46E0
:403080005346D9005A4B9C46002360444246201A6A40924601901F430F2F00D9B0E05548BF00C0598746374300D088E0002399460233082700260293CDE74346B346494698
:4030C0000093029B009A9246022B00D0BFE1002153460122002689461A40444B002136030C0D2405360B2643434C1B0526401E437600D207760816434846310007B03CBC86
:4031000090469946A246AB46F0BD330003434FD0002E00D1BCE1300001F0BAFA03000B3B1C2B00DDADE11D220100D31A08393A008F408E40DA40B9461643304B00279C4615
:40314000002360444442029385E753465A4613432CD1002300219B46023397E70B4320D05B46002B00D19EE1584601F091FA03000B3B1C2B00DD8FE102005946083A914098
:403180008B461D21CB1A5146D9400B0059460B4351469B469140194B9C4660444042002374E7002300219B4601336FE703236DE70023994601330427002602934BE70323A3
:4031C0000C27029347E70122D51A382D00DCB0E153461A4000210023002689467EE700238026994600223603004B77E7FF07000001FCFFFF7C7F0000FFFF0F80F303000039
:403200005E4500D972E100D16DE1019B4D46013B01930023340002935B461E020B0E1E430B020393330C994633041B0C494620000093FEF747FE009B3700434306004946F2
:4032400020009846FEF7C4FE2C0C09040C43A04509D9E419731EA74200D95CE1A04500D859E1023EE4194346E41A49462000FEF729FE0300009A80465343494620009B46A2
:40328000FEF7A6FE2A040904120C0A4393450DD94346D219013B974200D93AE1934500D837E102235B429C46D219E0445B46D21A4346360433439B460399180C0B0C1D007E
:4032C000059309045B46090C0C001B041B0C4443049159436B4368431B190D0CEB189C4203D980246402A44660441C0C09041B04090C20185D18824200D2DEE000D1D7E07C
:40330000161A029B9C465D1BAC459B415B42F61AB74200D106E149463000FEF7D3FD009B04004343494630009846FEF751FE2E0C09040E43B04509D9F619631EB74200D9E0
:40334000F3E0B04500D8F0E0023CF6194346F31A494618000293FEF7B5FD009B06004343494602989846FEF733FE2D0409042D0C0D43A84509D9ED19731EAF4200D9D6E016
:40338000A84500D8D3E0023EED192404210043463143049E059A3000ED1A0B040C0C1B0C58436643534354439A19030C9B189E4203D980225202944664441A0C00041B04E0
:4033C000000C14191B18A54250D34DD001231943964A019B94466344002B00DCF3E64A0709D00F220A40042A05D00A1D8A42894149428B4411005A46D20108D55A468C4B46
:403400001A4093468022D2009446019B6344894A934200DD5BE65A46C908500708435602514601225B058146360B5B0D0A4055E680231B031E4211D05A461A420ED15E4607
:403440001E433603360B2A0089467B4B46E6032B00D1E1E0012BBBD11A40BBE61E433603360B4246744B39E6002BB1D07D194A1EAF4252D91100A542A8D1039A9A42A5D1AC
:40348000A6E703003E00283B9E400023994654E601F0FEF8203041E603005246283B9A400021934677E6504601F0F2F820305EE6029B0026AB4200D323E7039E0299B4466C
:4034C00061448846B045B6415B467642F619B218013B0291974213D290424FD800D18EE0161A9B460DE7894500D28EE674084B46F60735005B081D434B46DB0702938BE6E2
:403500009742EDD10399029CA142E5D93E1A9B46F7E69846CAE61E00A5E6AC423ED874D0110053E70121494252E71C000EE71E002BE71F2D3CDC20230A0058465B1B984075
:40354000EA4099400243481E81415E461143EE404B0709D00F230B40042B05D00B00191D99429B415B42F61833023CD55346012200211A40002601238946AFE502235B427A
:403580009C46039CE344A446029B63449846A045B6417642F6190293B218B1E603988A1E41008142B6417642F619AD19039161E71F225242D31A5A46DA401300202D29D042
:4035C00040225846551BA8400143481E814107200B4318400026002809D00F2200261A401900042ABBD10B0070077602360BDB0803439946012253461A4000236EE5029925
:403600008D42BBD89B4600267BE603989842C5D3110032E70020D7E780265B4636031E433603360B009A8946034B57E5FF030000FFFFFFFEFE070000FF070000F0B55F460B
:4036400056464D464446F0B41F035C00DB0F9A46194B0E034D00C90F8046360B6D0D8B4691463F0B640D9D4219D0134B9C421BD00123A54206D018003CBC90469946A246AA
:40368000AB46F0BDBE42F6D1C845F4D1D34510D0002DF0D1304303005A1E9341EBE7310001230143E7D1E0E73A430123002AE2D1DEE70023DFE7C046FF070000F0B55F46BF
:4036C000444656464D46F0B41F033C0B2C4F0E034D00A3465C008446360B6D0DC90F9046640DDB0FBD422BD0254FBC422ED0002D0ED130430700814678427841002C17D11A
:403700005F463A4314D14B460020002B0AD006E0002C02D15846024301D099421AD00123484218433CBC90469946A246AB46F0BD0028F2D058425841012240421043F1E745
:4037400037000743D0D002204042EBE75F461743CDD0F8E7A542E2DC05DB5E45DFD808D000205E45DED248424841012340421843D8E7C445D3D80020C445F4D3D2E7C046D7
:40378000FF070000F0B55F464D4644465646F0B41C03240BA4462F4C0F034D005E00C90F80463F0B6D0D8B469146760DDB0FA54220D0284CA64222D0002D12D1384344423F
:4037C0004441002E20D0002C0DD05C42634101245B421C4320003CBC90469946A246AB46F0BD002E17D05B4519D05B465C4201231C43EFE7390002240143EBD1D9E761466B
:4038000002241143E6D1D7E761460A43DBD100240028DFD0E9E761460A43E4D1E5E7B54203DD01225C421443D4E7B542CDDB6745DBD809D000246745CCD259464C426141FB
:40384000012449420C43C5E7C845CED80024C845F3D3BFE7FF070000F0B55F4656464D464446F0B40D0399464E002B0B87B00700924680469B46760DCC0F002E69D06D4BF3
:403880009E4235D05B468022DD001204430F13432B439B46C3009846674B00279C460023664401934A4615035000D20F53462D0B400D914600D176E05E4A90426CD08022EC
:4038C0005B0F120413435C4AED0094461D4353460022DB00604449463618701C6140029017430F2F00D9AFE05448BF00C759BF465B461F4300D088E000239B46984602337D
:4039000008270193CEE74946022A6AD0032A00D109E2012A00D0BBE111400022002300259046CCB200212D030A0D12052D0B1543434A1B0515401D436D00E4076D082543E5
:403940004046290007B03CBC90469946A246AB46F0BD034352D05B46002B00D18AE1584600F096FE03000B3B1C2B00DD7BE11D22D31A3A0001005D46DA4008398D4013000E
:403980008F402B439B46B8462E4B00279C46002360444642019385E752462A432CD100250023022297E752462A4321D0002D00D154E1280000F06CFE03000B3B1C2B00DD16
:4039C00046E11D21CB1A51460200D9405346083A954093400D431B4A944660444042002279E7012400220C40124B0025904699E70025002301226EE703226CE700239B466A
:403A000098460133042701934CE703230C27019348E700238025984600242D03054B81E75D464346019A6FE75D4643462100019A6AE7C046FF07000001FCFFFFBC7F00001C
:403A4000FFFF0F80F30300004246120C91461A0C9446424617044A461B041B0C5A43604690464A4642431000039262461C003F0C7A437C4342440192220C9246019A52441F
:403A8000904506D98246802040028046C24450460390100C049048462404240C1204121905922A0C2D042D0C68432C00824648467C4350438146200C8046574357444744AD
:403AC000BA4503D9802040028046C144380C3F04B84648442404240C01900498A044404404905846000C814658460404200C8246070048465F434C4643436046604364465F
:403B0000834650464443380C8446E4186444A34203D980235B029C46E34448463F04230C3F0C2404E419574668436F4384464D46504655434243380C814662444A445B44CB
:403B4000944503D9802040028446654403983F04834604983F0C8446E344C345804140428246100484460198674484466744A344BC46A345A4419946D44464428742BF41F6
:403B8000D4458041E144A04699459B417F424042C8440743120CBA18A045A4415F423B0064422343D71843467D19DB0D6D021D435B465A02059B1A43531E9A415B46DB0D97
:403BC0001A4343465B021343EA0107D501225C0813402343EA07029E13436D08574AB218002A4BDD580709D00F201840042805D0181D98429B415B42ED180300E80104D5FA
:403C00004F4A15408022D200B2184E48824200DDE7E60124DB08680718436D02530580462D0B5B0D0C407DE6802259461203114208D0154206D115432D0398462D0B4C46C7
:403C4000414B6FE65D4615432D032D0B3E4B69E603005546283B9D400023BCE6504600F017FD2030A8E60300283B9F400023BB46984689E600F00CFD203073E60124A61AD0
:403C8000382E07DD00220C4000230025904649E6029EA3E71F2E20DC20222C001800921BF040944093400443581E83411C43F540630709D00F232340042B05D023001C1D35
:403CC0009C4292415242AD182B021FD5012400220C4001230025904624E61F202C004042821AD440202E1CD04022961BB5402B43581E83410720234318400025002809D04B
:403D00000F2200251A401C00042AD8D1230068076D022D0B0124DB08034398460C40002300E60025E3E780220124120315432D0398462D0B0C40044BF4E5C046FF03000041
:403D4000FFFFFFFEFE070000FF070000F0B557464E464546E0B40E001100F20F9246C500420F180337037400400A4E0F7F0A3043CF4E17435A00640D520DDB0FC900B24286
:403D800000D1E5E001267340A61AB446534500D1AFE0002E00DC0DE1002A3AD103000B4300D0E4E06B0709D00F232B40042B05D02B1DAB42AD416D427F191D003B0200D44B
:403DC00088E0BB4B01349C4200D110E13A00B94B51461A4001235007ED08520264050543120B640D0B400021280012030D0D120B64052D0515436208AF4CDB072C40144371
:403E0000640064081C4321001CBC90469946A246F0BDA74B9C42C5D080231B0418436346382B00DDFDE01F2B00DD30E1624620239B1A02009A40664690460A009940F2407D
:403E400046464B1E99413243114363460200DA40691A8D429B410D00BA1A5B42D71A3B0235D57A02530A98464346002B00D1C4E0404600F00DFC0300083B1F2B00DDC5E090
:403E800020222900D21A4746D1409F400A009D403A439C4200DDC0E01C1B631C1F2B00DDE4E0202114002800C91AD8408C408D400443DA40681E854117002543002471E715
:403EC000424663461A4300D14CE2674645466B0700D069E7012351467807ED08FA080B40054373498C4238D012036405120B640D79E7002E00DC9AE0002A47D06C4A944258
:403F000000D14FE78022120410436246382A00DC08E10143481E81410022C9B24919D219A942BF410D007F42BF183A0200D442E15F4A0134944200D14EE101205D4A69089A
:403F40003A4028400843D507054357089A4629E706000E4300D017E714E72900114300D1F9E1802109030A431203120B3BE701235B429846C4446346002B72D1691A8D42FB
:403F80009B413F1A5B42FF1A0D0068E702000A4300D107E7012252429046C4446246002A00D0E6E06918A942B6413F187642F7190D00BAE7002E00D080E0621C5205520DED
:403FC000012A00DCF9E06A1A91464D45B6413A1A7642921B9046120200D499E04D1BA9428941C71B49427A1A90469A463CE752460123002513400022F5E6280000F048FB8A
:4040000020300300083B1F2B00DC39E72A002838824000259C4200DC3EE7264FE41A1740C0E60143481E81410022C9B210E7002E00D0F1E0621C94465205520D012A00DC00
:40404000A0E01B4A944500D1C5E06918A94292413F185242D2194908D5070D4357086446A0E6134B9C4200D0D9E69BE611001F3CE1400C00202B00D180E04021CB1A9A406A
:4040800015436A1E95410027254300241FE763460200203BDA406346202B71D0402366469B1B98400143481E814111430022CFE6FF070000FFFF7FFFFFFF0F80002C48D0B5
:4040C000CA4CA24200D1A2E07442A1468024240427434C46382C00DDDBE01F2C00DD44E14E462024A41B3E00A640A246B0464C462E00E640B4464646644626435446A5402E
:404100006C1EA54134002C434D46EF400D1B28E04A4643464D461A4300D0A5E6002300240025DEE61F2A5ADC66462022921B060096409146B04662460E00D6404246164376
:404140004A4691404A1E9141020060463143C240E4E63C002C435AD0F443A146002C52D14D1BA9428941C71B49427F1A14009A4675E69E4A944200D0C7E613E600227FE74C
:4041800000208FE7002C00D0C8E03B002B4300D10FE103000B4300D104E66918A9429B413F185B42DF193B0200D41AE1904B0D001F406446F6E59A4689E63A002A43002C21
:4041C0005CD1002A75D102000A4300D1CAE007000D009A46E6E564460022002581E662460600203AD6406246B046202A00D1B7E040226646921B904001434246481E814154
:40420000114300228AE6794CA24200D061E707000D0014009A46C5E5002C41D13C002C4378D0F443A146002C20D0704CA24271D04C46382C00DDB2E01F2C00DDBCE020266A
:40424000341BA2463C005646B4404E46A0462C00F440A446444666463443A4465446A54064466E1EB54125434C46E7406D188D4289413F184942CF19140056E6002A2FD1B2
:4042800002000A4300D184E007000D009A46574C88E53D436F1EBD41ECB200270D1B60E7524CA24236D0744280263604A1463743BEE702000A4300D174E56A1A90464545B6
:4042C000B6413A1A7642921B9446120200D4F7E54D1BA9428941C71B49427F1A9A4661E502000A433AD0ED087C072C438025FA082D032A4208D0C7082F4205D145072C003E
:404300003A009A46C9080C43670FD200E5001743364C47E507000D00140043E53A002A4343D002000A4319D0ED087C072C438025FA082D032A4207D0C6082E4204D147076A
:404340003C003200C9080C43D700620FE50017439A46264C26E50022002544E5234C21E5002049E700230025BBE54C463E00203CE6404C46B446202C31D040244E46A61BCA
:40438000B7403D436C1EA54164462C4300270D1BE7E6802200231203144C0025A1E53D436F1EBD410027EDB260E707000D000F4CF8E407000D00F5E44E463C00203EF4404A
:4043C000A0464C46202C0ED040244E46A41BA7403D436F1EBD4144460027254346E70027CFE70D0073E50027F2E7C046FF070000FFFF7FFF0B0330B5134D1A0B4B005B0D37
:40440000C90F0024AB4211DD104CA34210DC8024640322430E4CE41A1F2C0CDD0D48C31ADA4013005C42002900D11C00200030BD094BCC18FAE7E040084CA44663449A4064
:4044400013000343EEE7C046FE0300001D0400003304000013040000FFFFFF7FEDFBFFFF70B5051E28D000F013F9154B154A1B1AD21A1F2A16DD2C00134A0025D21A944070
:404480005A052403240B520D002124030B0D240B1B0523430D4C1205234013435B002800590870BD0B212C00081AC440954024035A05240B520DE7E700220024E4E7C0464D
:4044C0001E0400003304000013040000FFFF0F804200120E511C4302C9B270B55D0AC40F012915DDE02189008C466D071B0B6244002128000D0D2D052B431C4D52052B40EB
:40450000520813435B00E4075B082343190070BD002A15D1002D1FD0280000F0B9F80A281DDC0B232A001B1ADA4013000200153295400F4A1B03121A52051B0B520DD7E741
:40454000002D06D080221B0B120313436D07094ACEE7084A0023CBE700220023C8E703000B3B9D402B000025E3E7C046FFFF0F8089030000FF0700004B0070B55E0D0C031F
:40458000751C640A420F6D052243C90FC4006D0D012D2ADD3B4BF318FE2B1ADC002B42DD8001451EA841D2001043620F0243500704D00F201040042800D004328020C004A7
:4045C000104021D00133FF2B03D09201520ADBB201E0FF2300225202520ADB0513435B00C9075B080B43180070BD002E07D01443EFD08020D20080040243FF23D7E7224306
:404600000023002A03D00522D208FF2B03D05202520ADBB2DFE7002A32D08020C00302435202520AD7E71800173014DB8020000402431E20C01A1F280FDC2500124BF31809
:404640009D406E1EB5419A402B0013432200C2401A430023ABE70023D5E702256D42EB1A1500DD40202809D0084BF3189A401443621E9441220000232A4398E70022F6E729
:404680000022A8E780FCFFFF82FCFFFFA2FCFFFF1C2101231B04984201D3000C10391B0A984201D3000A08391B09984201D30009043902A2105C40187047C04604030202CE
:4046C00001010101000000000000000010B5002100F022FF10BD0000014B18687047C046640100200E4B70B500251E000D4CE41AA410A54204D0AB00F35898470135F8E773
:4047000003F07CFD084B00251E00084CE41AA410A54204D0AB00F35898470135F8E770BD08820000088200000882000010820000002310B59A4203D0CC5CC4540133F9E784
:4047400010BD03008218934202D019700133FAE7704700000FB40B4B13B51C68002C05D0A369002B02D1200001F0A2F805AB049AA1682000019302F0A1F916BC08BC04B0D7
:404780001847C04664010020084B70B51C680500002C05D0A369002B02D1200001F088F82900A268200002F035FC70BD6401002070B505000E00002804D08369002B01D12D
:4047C00001F076F8AB69AC68002B02D1280001F06FF8254B9C4201D16C6808E0234B9C4201D1AC6803E0224B9C4200D1EC68A3891B0702D52369002B11D12100280000F05C
:40480000EDFE00280BD0012040422BE0013B0136A360002B08DB23685A1C226019703178A3680029F2D10BE0A269934201DB0A29F1D12200280000F079FE431CEFD1E2E777
:40484000013BA360002B08DA22000A31280000F06DFE431CD7D00A2004E00A2023685A1C2260187070BDC0466080000080800000A080000010B5034B01001868FFF798FF6F
:4048800010BDC0466401002070B516000D0001F00FFF002E0DD06B226B005B0DD31A002B07DD0024034A1B059D182B002200FEF7D3FF70BD0000F03F0023F0B5A3B01E9370
:4048C000002600270B000290049118921D931D9B1A780D2A05D8092A14D2002A00D1BDE112E02B2A04D02D2A04D0202A0CD109E0002200E0012210925A1C1D925B78002B8F
:4049000004D1ABE10133E1E70023109300221D9D09922B78302B5DD16B78582B01D0782B4CD1109BC24A01931EAB00931DA91FAB029801F099F807240390044001D100F0A3
:40494000BCFD062C05D1002301351D95109300F0B4FD1E9A002A07D0352120A801F094FF1E99029801F008FC062C1DD8200002F089FC040A0715180A040000273E0013E020
:40498000209E219F10E0219BAA4AAB491A401F9B209E5B181B051A43170005E0A74F002602E00126A64F7642039B1B0701D400F084FD80231B061F4300F07FFD1D9B5A1C8F
:4049C0001D925B78302BF9D0002B01D100F075FD0123099300250A221D9B08950C9306951D9C23780393303BD9B2092910D80699082904DC089951435B18089302E029001A
:404A000051435D18069B0134013306931D94E7E7029801F011FB03680298059301F00CFB006802F08BFB05990200200002F08DFB041E06D00020069A039B844603920590BB
:404A40005AE0029801F0F8FA006802F077FB1D9B069A18181D900378101E3ED1302B05D11D9B01305A1C1D925B78F7E71A00313A082A3CD8844600201D9A03900C92303BCE
:404A8000421C002B23D00A219444039A101882420BD00132541E082C03D8089C4C430894F5E7102AF3DC4D43F1E7511C0391082A06DC0A2208994A439B180893002206E07E
:404AC00003990022102902DC0A2169435D181D9B1000591C1D915B7803E02000A446069A03921A00303A092AC9D9012203E0002203929446013205922022190091430A00C2
:404B00000021452A4DD1039B099A034313438B4200D1A3E01D9B049301331D93049B5B782B2B04D00C002D2B07D1012400E00C00049B02331D93049B9B781A00303A092AC0
:404B40002CD8302B04D11D9B5A1C1D925B78F8E71A00313A0021082A23D8303B0A931D9B11931D9B591C1D915B781A00303A092A06D80A220A994A43D218303A0A92F0E7D5
:404B8000119A8A1A2F49082A04DC0A992D4A914200DD1100002C04D0494202E00021049A1D92039A002A64D1099A104301D000F084FC059A002A51D14E2B1CD002DC492B91
:404BC00005D04BE0692B02D06E2B14D046E01E491DA801F085F9002840D01D9B1B49013B1DA81D9301F07CF9002802D11D9B01331D93124F18E016491DA801F071F900280F
:404C00002CD01D9B1B78282B0DD120AA11491DA801F07AF9052806D1219B084A209E1A43170000F04AFC0C4F002600F046FCC04624800000FFFFEFFF330400000000F07F46
:404C4000FFFFFF7F1F4E0000188000001B80000021800000048000000000F8FF049B1D9300231093189B002B01D000F029FC00F032FC6346CB1A0593069B002B01D1039BA3
:404C80000693039C102C00DD10240898FFF7E8FB06000F00092C15DD2300874A093BDB00D3181A685B68FEF7D7FD060028000F00FFF7D6FB02000B003000390002F0ECFA5C
:404CC00006000F00039B0F2B3ADC059B002B01D100F0F3FB26DD162B07DC7749DB00C9183200086849683B0017E02523039A9B1A059A9A4224DC0F24039B6F4DE41AE1008D
:404D000069183200086849683B00FEF7A5FD059B1C1BE4002D192A686B68FEF79DFD06000F00CAE3059B16330ADB059B3000DA00614B39009B1A1A685B68FEF769F9EEE793
:404D4000039B1C1B059BE418002C59DD0F2323400AD05949DB00C9183200086849683B00FEF77AFD06000F000F239C4300D1B3E02633FF339C420DDD0024039408940594CC
:404D800022230026029A4D4F1360089BB34200D07FE392E30023300039001D002411012C0DDD0122144207D0454AEB009B181A685B68FEF751FD012301356410EFE7002BD5
:404DC00001D006000F003F4BED00FF183C4B32005D19286869683B00FEF73EFD374B0F000B40394906008B42C6D838498B4203D90126374F76426FE0D4239B04FF186BE09F
:404E0000002C69D00F23644223400AD02A4ADB00D31830001A685B683900FEF7F9F806000F00241158D01F2C04DD002403940894059426E100230493E30601D56A230493F8
:404E4000300039000023234D002C0ADD0122144204D02A686B68FEF7FFFC012364100835F2E7002B01D006000F00049B002B19D06B227B005B0D3900D31A002B12DD1F2B15
:404E80000CDD0026342B02DDDC27BF040AE00122203B52429A4011400F0003E0012252429A4016400022002330003900FDF790F90028BAD112E0C046C88000000000F07F52
:404EC000A08100000000B0FC0000A07C0000907CFFFFEF7F3880000000230493089B069A00930C99039B029801F09CF90890002800D141E7059B00245A42DB171A40059BA1
:404F00001392DB43059ADB171A4011920394089B0298596801F0F8F80590002800D12FE7089B08991B690C319A1C92000C300693FFF7FEFB20AB01931FAB009332003B00CC
:404F400002980C960D9701F023FC1E90002800D116E70121029801F0EDF90390002800D10EE71F9B002B00DA95E0139AD518119A0992049920985B1A3621091A1B188C462C
:404F8000C549013B01208B4200DB8FE06246C91A521A94461F2900DD82E08840002312900A932B0063440693099B049A6344D3180993069B2A009D4200DD1A00099B9342F8
:404FC00000DD1300002B06DD069AED1AD21A0692099AD21A0992139B002B6BD1069B002B00DD80E0119B002B00D086E0099B002B00DD8CE0002D00DD93E0059A1E990298AE
:4050000001F0EBFA041E00D1BAE60025C3680399C560099301F0C6FAA84200DB8FE0099BAB4200D020E2AE4200D01DE23B03AB4200D019E2D622994BD2043B40934200D883
:4050400012E26369AB4276D021000122029801F057FA0399040001F0A5FA002800DC03E2049A8E4B002A00D199E01A00D6213A40C9048A4200DD92E0DC239B049A4200DD4F
:40508000F5E12223029A00261360089B0027002B00D0FEE111E2119A139DD21A099268E77F49CB1A010099400A9101E000230A93129076E71A000399029801F0CDF903907C
:4050C000002800D15CE601001E9A029801F03BF91990002800D153E61E99029801F04CF8199B1E937AE7069A1E99029801F008FA1E90002800D075E742E6119A05990298E5
:4051000001F0AAF90590002800D06FE738E61A000599029801F0F4F90590002800D069E72EE62A000399029801F0EAF90390002800D062E724E62369012B85DC94E10028F1
:4051400064D1099A3B03002A24D0564A39001B0B93422DD1049B0138B4460200002B0AD0D4254E4BED043B40AB4204D86C321B0DD31A02009A4062451AD14B4B994202D124
:40518000531C00D1FCE5454B0026194080235B03CF1869E1002B0BD1002E09D160E70126424A3B409B183F4A76421A4317005BE10A9B002B03D03B4200D155E103E0129BAE
:4051C000334200D150E1099B049A30003900002B0AD0FFF759FB02000B000C980D9902F05BF806000F003FE1FFF74EFB02000B000C980D99FEF7AAFD0022002306000F00E1
:40520000FCF7E6FF002800D03BE72DE10399200001F012FB80230022DB0506900791FCF7E7FF00284AD0099B002B04D00022204B0A920B930EE0002E02D13B0305D10CE06D
:40524000012E02D1002F00D11BE700220025194B0A920B93164B069349E0002206980799134BFCF7BBFF002808D1069807990022114BFEF7F1FA0500069102E00E4B099D9D
:405280000693802212069446069B1A9563441B931A9A1B9B29E0C04602FCFFFF0000F07FE2FBFFFFFFFF0F00FFFFEF7F0000F0FF0000F03F0000F0BF0000E03F894B069886
:4052C00007990022FEF7C8FA099B05000691002B05D180231B06CB181490159303E00200069B14921593149A159B0A920B937E4B3B401293129A7D4B9A4229D10C9A0D9B14
:405300000E920F937A4B3000FF18390001F0D0F902000B000A980B99FEF79EFA32003B0001F0BAFF704A734B06000A409A420BD9714B0F9A9A4203D10E9B013300D11FE5E6
:4053400001266D4F76427EE0D4239B04CF1844E0049B002B2FD0D423129ADB049A422AD8664A674B28000699FCF742FF00281BD028000699FCF7ACFF002800D10130FFF775
:405380006FF8099B05000691002B05D180231B06CB181690179303E00200069B16921793169A179B0A920B93D6220B9BD2049B18129A9B1A0B930C980D990A9E0B9F01F027
:4053C00077F902000B0030003900FEF745FA0C9A0D9B01F061FF06000F00049B002B32D1414B129A0A973B409A422CD106992800FFF700F802F07CFA0B00020006992800F4
:40540000FEF7A4FC099B06900791002B04D1002E02D10A9B1B030ED006980799394A3A4BFCF7DCFE002834D106980799374A2D4BFCF7E8FE05E0334A354B06980799FCF700
:40544000CDFE002825D11E99029800F095FE0599029800F091FE0399029800F08DFE2100029800F089FE52E5049B002B11D0294B30000F9300230E9339000E9A0F9BFEF769
:40548000EBF906000F1E04D1002802D12223029A13601E99029800F06FFE0599029800F06BFE0399029800F067FE0899029800F063FE2100029800F05FFE189B002B02D0A3
:4054C000189B1D9A1A60109B002B04D080231B063200FB1801E032003B001000190023B0F0BDC0460000E03F0000F07F0000E07F0000B0FCFFFF9F7CFFFFEF7F0000C0FF3B
:40550000FFFFDF419535A094FFFFDF3F35E5AF35FFFFCF3F0000503910B5034B0A0001001868FFF7C9F910BD64010020F8B505000F001400002804D08369002B01D100F04E
:40554000B7F9234B9C4201D16C6808E0214B9C4201D1AC6803E0204B9C4200D1EC68A369A360A3891B070AD52369002B07D023682269FEB2981A636998420FDB08E0210045
:40558000280000F02BF80028F1D0012040421DE02100280000F01EF90028F6D1A3680130013BA36023685A1C22601F706369984205D0A3893000DB0708D50A2E06D1210095
:4055C000280000F007F90028DFD13000F8BDC0466080000080800000A0800000364B70B51D6806000C00002D05D0AB69002B02D1280000F05DF9314B9C4201D16C6808E029
:405600002F4B9C4201D1AC6803E02E4B9C4200D1EC680C22A35E9AB2110723D4D10607D409220120326037321343A381404242E0530713D5616B002908D0230044339942A8
:4056400002D0300001F066F9002363632422A3899343A38100236360236923600822A3891343A3812369002B0BD1A0238022A1899B0092000B40934203D02100300000F03B
:4056800005FD0123A289134005D00023A36063695B42A36103E0920700D46369A36000202369834207D10C22A35E1A0603D540221343A381013870BD6401002060800000A8
:4056C00080800000A0800000F7B58A8905000C0013075AD44B68002B02DC0B6C002B19DDE76A002F16D000232E682B6080235B011A4001D0606D14E00123216A2800B847B3
:40570000431C0ED12B68002B0BD01D2B01D0162B02D12E6000205AE04022A3891343A38155E0A3895B0706D56368C01A636B002B01D0236CC01A00230200216A2800E76AD6
:40574000B847A389421C06D129681D293AD8204ACA40D20736D50022626022692260DB0405D5431C02D12B68002B00D16065616B2E600029CED023004433994202D02800C8
:4057800001F0C8F80020606321E00F69002FC1D00B680F60DB1B01930023920700D14B69A36003E0019B3F181B1A0193019B002BB0DD019B3A00216A2800A66AB0470028C1
:4057C000F0DCA389402201201343A3814042FEBD010040200B6970B505000C00002B01D100201CE0002804D08369002B01D100F05FF80B4B9C4201D16C6808E0094B9C4233
:4058000001D1AC6803E0084B9C4200D1EC680C22A35E002BE4D021002800FFF755FF70BD6080000080800000A080000010B5024900F0B0F810BDC046D5570000002310B5EC
:40584000040003604360836081814366C281036143618361190008225C30FEF772FF054B24626362044BA362044BE362044B236310BDC046A5700000CD7000000571000039
:405880003171000070B568254B1E5D430E002900743101F08BF8041E08D000212A00016046600C30A0606832FEF74BFF200070BD836913B50400002B28D18364C36403653B
:4058C000134B144A1B6882620193984201D101238361200000F020F86060200000F01CF8A060200000F018F80022E06004216068FFF7A4FF01220921A068FFF79FFF02221C
:405900001221E068FFF79AFF0123A36113BDC046008000002D580000F8B51D4B06001D68AB69002B02D12800FFF7C2FF4835AC686B68013B05D40C22A75E002F10D0683472
:40594000F7E72B68002B01D02D68F0E704213000FFF798FF28600028F6D10C23336016E0012320005B42E3810233A38167662760A760676027616761A7615C300822390036
:40598000FEF7DFFE20006763A763A764E764F8BD00800000F7B504000700002601914834002C16D06368A5680093009B013B00930DD4AB89012B08D90E22AB5E013304D061
:4059C00029003800019B984706436835EDE72468E6E73000FEBDF0B50600056914364A113400AA4225DA1F23AD00920019407519B2183300002916D0130004CB2027CA4049
:405A0000B4467F1A64469D4208D91C68BC402243644604C404CBA446CA40F3E72260002A07D0043405E01C00954202D902CA02C3F9E7A31B9B10036100D14361F0BD0300A4
:405A4000303B092B01D820380BE00300613B052B01D8473805E00200413A0023052A01D82738C3B218007047F0B58DB0099102920A93059000F0E0FA03681800079301F0FA
:405A80005DFB0222079B52421B18013B1B7804900B93099B19688B1C521AD118019308910199013308783028F7D0FFF7C8FF061E20D1049A0799019801F047FB00283CD134
:405AC000019B049A9C182078FFF7B9FF002837D00194019B1878302803D1019B01330193F7E7FFF7ACFF43424341039301232600089302E000231E000393019C2078FFF70B
:405B00009EFF002801D00134F8E7049A0799200001F01BFB00280BD1002E0BD1049BE41826002078FFF78BFF002801D00134F8E7371E08D0361BB70005E0019C370000E094
:405B40000700012303932378502B01D0702B28D163782B2B07D02D2B03D00023661C069304E0012300E000230693A61C3078FFF766FF431EDBB2182B13D81038013605006F
:405B80003078FFF75CFF431EDBB2182B03D80A235D432818F1E7069B002B00D06D427F1900E02600099B1E60039B002B06D00020089B834200D07FE106307DE1019B0399CD
:405BC000E31A013B072B02DD01315B10FAE7059800F09AFA0300002605001433039308930696019BA3422BD2631E09930B9A1B78934209D0069B202B15D1089B1E600026E0
:405C00000433089306960EE00123049A9C1A099B1C19019BA342EDD80799200001F095FA0028DED0E6E7099B1878FFF708FF0F231840069B099C9840043306430693D0E7E5
:405C4000089C039B40C4E41AA4102C61300000F027FB029B64011B68261A01939E4225DDF61A3100280000F025FE0024A04217D01F2101342000731E1940884001005A1106
:405C80000398920012580A420AD0A34201DC022406E0B11E280000F00DFE0028F7D0032431002800FFF797FEBF190EE0019B00249E420ADA9E1B29003200059800F020FC66
:405CC000030005001433BF1B0393029B9B6804939F4208DD0598290000F04EFA0023129AA3201360E8E0029B5E68B74259DA019BF61BB34232DC029BDB68022B1ED0032BB5
:405D000020D0012B21D1019BB3421ED1012B0DDC029B62205B680193019A0A9B1A600123039A2B611360129B1D60C5E001992800013900F0BFFD0028EAD106E0139B002BB7
:405D4000E6D002E0139B002BE2D10598290000F013FA0023129A50201360ADE0771E002C07D1002F06D03900280000F0A3FD040000E001241F237A111F401E3BBB40039949
:405D8000920052581A4201D002231C43019B31009B1B28000193FFF71EFE029B02265F6800E00126002C00D181E0029BDB68022B0BD0032B0DD0012B77D1A20775D5039ABD
:405DC000126814431C4207D16FE00123139A9B1A1393139B002B68D02C69A30004932B00A20014339918002294461A68501C02D001321A6021E0624604C39942F5D8AB68E8
:405E00009C4212DB6B680598591C00F07DF929002B6903909A1C92000C310C30FEF788FC2900059800F0A8F9039D2B695A1C2A61012204339B00EB185A602B001433022EE2
:405E400012D1029A01991268013A91422BD14A111F21019892000140012004008C40D358234220D006001EE02A6994420BDA01212800FFF7B0FD029B01379B6801269F42EE
:405E800000DD27E70FE01F24019A01262240141E09D0049A9B18043B186800F001FA20210C1BA042E3DB202300E010231E433000129B1D600A9B1F600DB0F0BD082370B5A4
:405EC00020259A1A9200AD1A436806681C00AC40D34034430460436004308842F4D370BD30B503680C780133002C0AD01A781500413D192D00D820320131A242F2D0002011
:405F000001E00360012030BDF0B589B000920A68009953119B00CB1802931F231A400790059202D0029B04330293029B00251E1F37003400079B35601B680695039301952D
:405F4000039B013303931B780493002B3BD00498FFF775FD002822D1049B202B17D8019B069A9342ECDDBC4206D2072D04DC2A0039002000FFF7A2FF009B08259C42DFD925
:405F80000025019B271F3D6006933C00D8E7049B292B4BD1039B079A0133136013E0019B013501330193082D06DD009B9C42C7D900230125043C23600F22236810401B01C2
:405FC00018432060BCE7019B002B2FD0BC4206D2072D04DC2A0039002000FFF76FFF009B9C420AD9043302CC1A1F1160A642F9D2002204C39E42FCD20DE0059B002B0AD0A5
:406000002021059A029B891A01225242CA40043B19680A401A603368002B09D1009B9E4202D10123336003E0043EF4E7042000E0052009B0F0BD000000487047680100203F
:4060400070B50E001D000E23C95E90B01400002906DA00232B60B3891B060FD540230FE001AA01F0ABF80028F3DBF023029A1B021340054A9B185A4253412B608023DB004B
:406080000020236010B070BD00E0FFFFF7B502268B8905000C00334210D101AB6A46FFF7CFFF00990700280000F080FC00280CD10C22A35E9A0523D43343A38123004733CE
:4060C00023602361012363611AE080220D4BAB62A38920601343A381009B20616361019B002B0AD00E23E15E280001F079F8002803D00122A3891343A381A3891F43A78195
:40610000F7BDC0462D58000070B5466A04000D00002E07D1102001F089F86062466086600660C660666AF368002B09D0636AAA00DB689B18186800280ED002681A6017E0BB
:4061400021220421200000F0D6FB636AF060DB68002BEBD100200EE001210E00AE40721D9200200000F0C7FB0028F3D04560866000230361C36070BD70B5456A06000C003D
:40618000002D07D1102001F051F87062456085600560C560002C07D0726A6368D2689B00D3181A6822601C6070BDF7B5070008000C000D691E00002101921430019A0388FA
:4061C000013153439B190668360C56431A0C9446B4446246160C120494469BB2634408C08D42EBDC002E1BD0A3689D4212DB63683800591CFFF788FF2100236901909A1CFD
:4062000092000C310C30FEF793FA21003800FFF7B3FF019C2B1D9B00E31801355E6025612000FEBDF7B5060018000C000830092101931500FBF7D0FE01230021834202DA79
:406240005B000131FAE73000FFF75EFF089B436101230361092D12DD230009331F00009364193B780100303B0A2230000137FFF79CFFA742F5D1009B5C19083C01E0092555
:406280000A342F00019B9F4209DA631BDB5D0100303B0A223000FFF788FF0137F2E7FEBD00220300010C914201D103041032190E01D108321B02190F01D104321B01990FE6
:4062C00001D102329B001000002B03DB20205B0000D5501C70470722036810B501001A400CD001240020234223D10222134203D0E34020000B601CE09B0818E098B2002820
:4063000001D110221B0CD8B2002801D108321B0A180701D104321B09980701D102329B08D80704D45B082020002B02D0013210000B6010BD10B50C000121FFF7E5FE0123FA
:406340004461036110BDF0B50B691400126989B00D00934201DA25000C002F692669AA68BB1969680193934200DD0131FFF7CCFE0200BB1914329B00D3189C4600211300AA
:406380000290634501D202C3FBE71435BF00EB191434B6000593A31903950793079B9C4251D2208800281ED015000026039F08CF069504936B461B8A434319002B88CB18C7
:4063C00004999B19090C41432E68360C89191E0C89190E0C9BB209040B4308C5059BBB42E5D8069B5E6023681D0C1FD0002110001368039F04913E8801686E43090C711821
:40640000049E9BB289190E043343036008CF86881B0C6B43090C9B195B18190C0491059906900430B942E6D806994B6004340432B4E704235B429C4463461B68002B05D1EB
:40644000019B013B0193019B002BF2DC029B019A18001A6109B0F0BD0323F7B5134005000E001400002B08D02349013B9A00525800233100FFF799FE0600A310019338D079
:406480006C6A002C07D1102000F0D0FE6862446084600460C4606F6ABC68002C10D117492800FFF747FF0023B8600400036007E0019B5B1001931CD02068002810D00400C8
:4064C0000122019B1342F3D0310022002800FFF73AFF070031002800FFF74EFE3E00E7E7220021002800FFF72EFF002320600360E5E73000FEBDC046908100007102000098
:40650000F0B50C0017002369551185B0EB180193013300934968A3680290009A934202DA01315B00F9E70298FFF7EEFD00230200060019001432AB4203DA9800115001330C
:40654000F9E7EB43DB171D402300AD0055192269143392009A1894461F22174014D00132D21B0392002219682800B9400A4304C504CB0399CA409C45F5D84260002A07D0BF
:40658000019B0233009303E004CB04C59C45FBD8009B0298013B33612100FFF7EDFD300005B0F0BD03690A6910B59B1A0400181E12D1930014341431E218C918043A0439C4
:4065C00013680868834204D083429B410120184302E09442F2D3002010BDF0B50C0085B00700110020001500FFF7DCFF061E07D101003800FFF788FD01234661036155E078
:4066000000230193984204DA23002C001D000123019361683800FFF777FD019B26692F00C3601434B300E318020002932B69002514379B00FB180393143208CC69469C465F
:4066400008CF0432009363468B808B885D19009B9BB2EB1A65460193009B2D0C190C019B691A1D14131F9C466B4649199B880D1409040B4361460B60039BBB42DDD8029905
:4066800013008C420BD202CC8BB25B191D14090C49190D149BB209040B4308C2EFE7043B1A68002A01D1013EF9E7066105B0F0BD0F4B10B519400F4BC918002902DD00220A
:4066C0000B0012E04942091500220023132904DC802000030841030007E0143901201E2902DC1F24611A884002001000190010BD0000F07F0000C0FCF7B506000369143619
:406700009B00F3181D1F2C680F0020000193FFF7C7FD20231B1A3B601C490A2813DC0B2327001B1ADF4039439C460B000021AE4202D2019908390968153084406046C140DA
:406740000C4322001EE00027AE4202D2019D083D2F680B388446031E11D09C40202021433C00C01AC44021430B000021B54201D9043D29686446C140A7400F4301E0214340
:406780000B003A001000190003B0F0BD0000F03FF7B51D000121089F1400FFF7B5FC2B036D0006001B0B6D0D02D08022520313430193002C18D068460094FFF78CFD009C2A
:4067C000002809D0019B20211A00091A8A40C34022437261019300E07461019CB461631E9C410134346107E001A8FFF774FD0124019B346173612030002D06D00B4BED1887
:4068000035232D183D60181A0BE0094BC018094B3860E3189B00F3185869FFF741FD6401201A099B18603000FEBDC046CDFBFFFFCEFBFFFFFFFFFF3FF0B585B00E0002A94B
:406840000700FFF759FF04000D00300003A900940195FFF751FF36693F690200BF1B7E01B446039F029E0B00F61B6644002E03DD36057119019101E036058B1B0098019969
:40688000FCF7C6FB05B0F0BD1300013910B549111269013189001433920041189A189A4202D910CB10C0FAE70023814201D908C0FBE710BD30B50400026914344B119A42EE
:4068C0000CDB0CDD1F22114009D09A00155901202A00CA408A4095420CD100E013009B00E318A34205D9043B1A68002AF9D0012000E0002030BD4A4370B51100140000F0AD
:4069000055F8051E03D022000021FDF71AFF280070BD000070B50500002944D00C1F2368002B00DAE418280000F095FC1E4A13681100002B02D16360146031E0A3420DD9A3
:406940002268A018834203D118685B688218226063600C6024E0A24203D813005A68002AF9D11E689819A0420BD12168711858181960824214D110685268411819605A60CB
:406980000EE0A04202D90C232B6009E021686018824203D1106852684118216062605C60280000F059FC70BD5C020020032370B5CD1C9D43083506000C2D01D20C2501E0D9
:4069C000002D01DBA94202D90C23336048E0300000F041FC234B1C681A002100002913D00B685B1B0DD40B2B02D90B60CC181EE08C4202D1636813601AE04B6863600C00C5
:406A000016E00C004968E9E7174C2368002B03D1300000F035FB20602900300000F030FB431C18D00323C41C9C43A0420DD12560300000F011FC200007220B30231D90436D
:406A4000C31A0ED05A42E2500BE0211A300000F017FB431CEBD10C233000336000F0FCFB002070BD5C02002058020020936810B5013B9360002B05DA9469A34208DBCBB2C1
:406A80000A2B05D01368581C10601970C8B201E0FEF74CFD10BDF8B506000F001400D518AC4208D021783A003000FFF7DFFF0134431CF5D100E00020F8BD0000F0B59FB01B
:406AC00006000F0002920593002804D08369002B01D1FEF7EDFE7F4B9F4201D1776808E07D4B9F4201D1B76803E07C4B9F4200D1F768BB891B070AD53B69002B07D00023E9
:406B000006AD6B6120336B761033AB763DE039003000FEF763FD0028F1D001204042D6E0059A111D12680591002A00DA7FE00992013423782E2B00D18DE021780322684871
:406B400000F07EFB002807D0654B2A68C01A4023834013432B6001342178631C062261480293297600F06CFB002800D19DE05E4B002B00D090E00722059B07339343083343
:406B800005936B69039A9B186B61029C2378002B04D1029BE31A049312D003E0252BF8D00134F3E7049B029A39003000FFF773FF431C00D186E06A69049B944663446B6196
:406BC0002378002B7ED00122002352426A6002A95432521801342B60EB60AB601370AB6521780522414800F02BFB002808D03F4B2A68C01A0123834013432B600134EFE771
:406C00002B68DA0604D55322202102A8121811701A0704D553222B2102A81218117022782A2A00D17CE7099B00200A2105E05242EA60022213432B607AE72278303A092A7C
:406C400004D84B4301349B180120F6E7002800D16FE709936DE763782A2B0AD1059B02341A1D1B680592002B01DA01235B42079363E700230A201A0001346B60217830393F
:406C8000092904D84243013452180123F6E7002B00D152E7079250E705AB00933A00144B2900300000E000BF07E005AB00933A000F4B2900300000F08BF80390039B0133D9
:406CC00000D05EE7BB895B0600D526E70B981FB0F0BDC0466080000080800000A0800000CE810000D281000000000000C8810000976A0000F7B5170001938A680B6900909A
:406D00000C00934200DA130022003B6043321278002A01D001333B6023689B0602D53B6802333B60062523681D401ED0230043331B785A1E9341226892061CD53020E118B4
:406D40004331087021005A1C45310978A2184332023311700FE022000123193201990098089EB047431C0ED00135E3683A689B1A9D42F0DBDAE72200019943320098089D77
:406D8000A847431C02D10120404220E006232068E1683A6803400025042B03D18D1AEB43DB171D40A3682269934201DD9B1AED180027BD420AD0220001231A32019900981D
:406DC000089EB047431CDED00137F2E70020FEBDF0B58BB006920A0043320793059004920A7E0C00109B6E2A00D1ABE011D8632A22D009D8002A00D1B5E0582A00D0C5E03E
:406E000045310A70814A4FE0642A1DD0692A1BD0BCE0732A00D1AAE009D86F2A29D0702A00D0B3E0202209680A43226037E0752A1FD0782A33D0A9E00E001A684236111DE0
:406E4000196013683370A4E021681A68080606D4490604D5111D19600023D55E02E0111D19601568002D3BDA2D23049A6D42137036E021681A68080606D4490604D51568C9
:406E8000111D1960ADB202E0111D196015685F4B227E039308276F2A1DD00A271BE022007821453211705A4A19680392081D226818600D68100602D4500600D5ADB2D307AC
:406EC00002D520231A4322601027002D03D1202322689A4322602300002243331A7002E00A274A4B03936368A360002B09DB0422216891432160002D05D1049E002B11D020
:406F00007BE0002D79D0049E28003900FBF760F8039B013E5B5C280033703900FAF7D2FF051EF1D1082F09D12368DB0706D563682269934202DC3023013E3370049B9B1B08
:406F400023612BE009681A68080607D4490605D5111D19601368A28A1A8004E0111D1960136862691A600023049E236116E01A68111D1960166800216268300000F060F900
:406F8000002801D0801B6060636803E0260042363270012323610023049A1370079B09AA00932100069B0598FFF7A4FE431C02D10120404227E02369320006990598079D4A
:406FC000A847431CF4D0236800259B070FD4099BE068984217DA180015E022000123193206990598079EB047431CE1D00135E368099A9B1A9D42F0DBE9E72600039B42367E
:407000001B7833708EE70BB0F0BDC046D9810000EA81000070B506000D001400002804D08369002B01D1FEF743FC124B9C4201D1746808E0104B9C4201D1B46803E00F4BD8
:407040009C4200D1F468A368013BA360002B05DAA269934208DBEBB20A2B05D02368E8B25A1C22601D7004E0220029003000FEF75DFA70BD6080000080800000A0800000C5
:40708000002370B5064C050008002360FAF736F8431C03D12368002B00D02B6070BDC0460003002070B50C000E25495F00F0D6F8002803DB636D1B18636503E0A289024BF7
:4070C0001340A38170BDC046FFEFFFFFF8B51F008B8905000C001600DB0505D50E23C95E0022022300F08EF8A289054B28001340A38132000E23E15E3B0000F039F8F8BD57
:40710000FFEFFFFF70B50C000E25495F00F07AF8A389421C03D1054A1340A38104E0802252011343A381606570BDC046FFEFFFFF10B50E23C95E00F02FF810BD0023C25C58
:407140000133002AFBD1581E7047002330B59A420BD0013AC45CCD5CAC4205D19A4202D00133002CF6D12500631B180030BD000070B50500080011000022064C22601A00E1
:40718000F9F7CAFB431C03D12368002B00D02B6070BDC04600030020002370B5064C05000800236000F0E6FB431C03D12368002B00D02B6070BDC04600030020002370B5A3
:4071C000064C050008001100236000F0DBFB431C03D12368002B00D02B6070BD00030020002370B5064C05000800236000F0D2FB431C03D12368002B00D02B6070BDC046E4
:407200000003002070B50500080011000022064C22601A0000F0C6FB431C03D12368002B00D02B6070BDC0460003002010B5034B01001868FFF7BAFB10BDC04664010020F6
